{
  "contractName": "AutoBond",
  "abi": [
    {
      "inputs": [],
      "payable": false,
      "stateMutability": "nonpayable",
      "type": "constructor"
    },
    {
      "constant": true,
      "inputs": [
        {
          "internalType": "bytes32",
          "name": "",
          "type": "bytes32"
        }
      ],
      "name": "bonds",
      "outputs": [
        {
          "internalType": "uint256",
          "name": "supply",
          "type": "uint256"
        },
        {
          "internalType": "address",
          "name": "curve",
          "type": "address"
        }
      ],
      "payable": false,
      "stateMutability": "view",
      "type": "function"
    },
    {
      "constant": true,
      "inputs": [
        {
          "internalType": "bytes32",
          "name": "bondId",
          "type": "bytes32"
        },
        {
          "internalType": "address",
          "name": "holder",
          "type": "address"
        }
      ],
      "name": "getBalance",
      "outputs": [
        {
          "internalType": "uint256",
          "name": "",
          "type": "uint256"
        }
      ],
      "payable": false,
      "stateMutability": "view",
      "type": "function"
    },
    {
      "constant": true,
      "inputs": [
        {
          "internalType": "bytes32",
          "name": "bondId",
          "type": "bytes32"
        }
      ],
      "name": "getSupply",
      "outputs": [
        {
          "internalType": "uint256",
          "name": "",
          "type": "uint256"
        }
      ],
      "payable": false,
      "stateMutability": "view",
      "type": "function"
    },
    {
      "constant": true,
      "inputs": [
        {
          "internalType": "bytes32",
          "name": "bondId",
          "type": "bytes32"
        }
      ],
      "name": "getCurve",
      "outputs": [
        {
          "internalType": "address",
          "name": "",
          "type": "address"
        }
      ],
      "payable": false,
      "stateMutability": "view",
      "type": "function"
    },
    {
      "constant": true,
      "inputs": [
        {
          "internalType": "uint256",
          "name": "units",
          "type": "uint256"
        },
        {
          "internalType": "bytes32",
          "name": "bondId",
          "type": "bytes32"
        }
      ],
      "name": "getBuyPrice",
      "outputs": [
        {
          "internalType": "uint256",
          "name": "",
          "type": "uint256"
        }
      ],
      "payable": false,
      "stateMutability": "view",
      "type": "function"
    },
    {
      "constant": true,
      "inputs": [
        {
          "internalType": "uint256",
          "name": "units",
          "type": "uint256"
        },
        {
          "internalType": "bytes32",
          "name": "bondId",
          "type": "bytes32"
        }
      ],
      "name": "getSellPrice",
      "outputs": [
        {
          "internalType": "uint256",
          "name": "",
          "type": "uint256"
        }
      ],
      "payable": false,
      "stateMutability": "view",
      "type": "function"
    },
    {
      "constant": false,
      "inputs": [
        {
          "internalType": "address",
          "name": "curve",
          "type": "address"
        },
        {
          "internalType": "bytes32",
          "name": "bondId",
          "type": "bytes32"
        },
        {
          "internalType": "uint256",
          "name": "units",
          "type": "uint256"
        }
      ],
      "name": "newBond",
      "outputs": [],
      "payable": true,
      "stateMutability": "payable",
      "type": "function"
    },
    {
      "constant": false,
      "inputs": [
        {
          "internalType": "uint256",
          "name": "units",
          "type": "uint256"
        },
        {
          "internalType": "bytes32",
          "name": "bondId",
          "type": "bytes32"
        }
      ],
      "name": "buy",
      "outputs": [],
      "payable": true,
      "stateMutability": "payable",
      "type": "function"
    },
    {
      "constant": false,
      "inputs": [
        {
          "internalType": "uint256",
          "name": "units",
          "type": "uint256"
        },
        {
          "internalType": "bytes32",
          "name": "bondId",
          "type": "bytes32"
        }
      ],
      "name": "sell",
      "outputs": [],
      "payable": false,
      "stateMutability": "nonpayable",
      "type": "function"
    }
  ],
  "bytecode": "0x608060405234801561001057600080fd5b50611747806100206000396000f3fe6080604052600436106100865760003560e01c806372fbc2e61161005957806372fbc2e6146101e75780638c7171b51461023f578063927cb275146102ba578063b9ad7ea914610313578063e9fca2831461039557610086565b80630de410721461008b57806329e69dd9146100e4578063530e931c1461012957806354d9be5914610198575b600080fd5b34801561009757600080fd5b506100ce600480360360408110156100ae57600080fd5b8101908080359060200190929190803590602001909291905050506103cd565b6040518082815260200191505060405180910390f35b3480156100f057600080fd5b506101276004803603604081101561010757600080fd5b8101908080359060200190929190803590602001909291905050506105d5565b005b34801561013557600080fd5b506101826004803603604081101561014c57600080fd5b8101908080359060200190929190803573ffffffffffffffffffffffffffffffffffffffff1690602001909291905050506109b7565b6040518082815260200191505060405180910390f35b3480156101a457600080fd5b506101d1600480360360208110156101bb57600080fd5b8101908080359060200190929190505050610aee565b6040518082815260200191505060405180910390f35b61023d600480360360608110156101fd57600080fd5b81019080803573ffffffffffffffffffffffffffffffffffffffff1690602001909291908035906020019092919080359060200190929190505050610be7565b005b34801561024b57600080fd5b506102786004803603602081101561026257600080fd5b8101908080359060200190929190505050610e1a565b604051808273ffffffffffffffffffffffffffffffffffffffff1673ffffffffffffffffffffffffffffffffffffffff16815260200191505060405180910390f35b3480156102c657600080fd5b506102fd600480360360408110156102dd57600080fd5b810190808035906020019092919080359060200190929190505050610f33565b6040518082815260200191505060405180910390f35b34801561031f57600080fd5b5061034c6004803603602081101561033657600080fd5b810190808035906020019092919050505061113b565b604051808381526020018273ffffffffffffffffffffffffffffffffffffffff1673ffffffffffffffffffffffffffffffffffffffff1681526020019250505060405180910390f35b6103cb600480360360408110156103ab57600080fd5b81019080803590602001909291908035906020019092919050505061117f565b005b600081600073ffffffffffffffffffffffffffffffffffffffff1660008083815260200190815260200160002060020160009054906101000a900473ffffffffffffffffffffffffffffffffffffffff1673ffffffffffffffffffffffffffffffffffffffff1614156104a8576040517f08c379a000000000000000000000000000000000000000000000000000000000815260040180806020018281038252601a8152602001807f426f6e64206964206d75737420616c726561647920657869737400000000000081525060200191505060405180910390fd5b6104b06116e2565b600080858152602001908152602001600020604051806040016040529081600082015481526020016002820160009054906101000a900473ffffffffffffffffffffffffffffffffffffffff1673ffffffffffffffffffffffffffffffffffffffff1673ffffffffffffffffffffffffffffffffffffffff16815250509050806020015173ffffffffffffffffffffffffffffffffffffffff1663bbb8a2208260000151876040518363ffffffff1660e01b8152600401808381526020018281526020019250505060206040518083038186803b15801561059057600080fd5b505afa1580156105a4573d6000803e3d6000fd5b505050506040513d60208110156105ba57600080fd5b81019080805190602001909291905050509250505092915050565b80600073ffffffffffffffffffffffffffffffffffffffff1660008083815260200190815260200160002060020160009054906101000a900473ffffffffffffffffffffffffffffffffffffffff1673ffffffffffffffffffffffffffffffffffffffff1614156106ae576040517f08c379a000000000000000000000000000000000000000000000000000000000815260040180806020018281038252601a8152602001807f426f6e64206964206d75737420616c726561647920657869737400000000000081525060200191505060405180910390fd5b60008311610724576040517f08c379a000000000000000000000000000000000000000000000000000000000815260040180806020018281038252601f8152602001807f63616e6e6f742073656c6c207a65726f206f7220666577657220756e6974730081525060200191505060405180910390fd5b600080600084815260200190815260200160002090508060010160003373ffffffffffffffffffffffffffffffffffffffff1673ffffffffffffffffffffffffffffffffffffffff168152602001908152602001600020548411156107f1576040517f08c379a000000000000000000000000000000000000000000000000000000000815260040180806020018281038252601d8152602001807f4d757374206f776e20656e6f75676820756e69747320746f2073656c6c00000081525060200191505060405180910390fd5b60008160020160009054906101000a900473ffffffffffffffffffffffffffffffffffffffff1673ffffffffffffffffffffffffffffffffffffffff1663d32b84b48360000154876040518363ffffffff1660e01b8152600401808381526020018281526020019250505060206040518083038186803b15801561087457600080fd5b505afa158015610888573d6000803e3d6000fd5b505050506040513d602081101561089e57600080fd5b810190808051906020019092919050505090506108c885836000015461118f90919063ffffffff16565b8260000181905550610924858360010160003373ffffffffffffffffffffffffffffffffffffffff1673ffffffffffffffffffffffffffffffffffffffff1681526020019081526020016000205461118f90919063ffffffff16565b8260010160003373ffffffffffffffffffffffffffffffffffffffff1673ffffffffffffffffffffffffffffffffffffffff168152602001908152602001600020819055503373ffffffffffffffffffffffffffffffffffffffff166108fc829081150290604051600060405180830381858888f193505050501580156109af573d6000803e3d6000fd5b505050505050565b600082600073ffffffffffffffffffffffffffffffffffffffff1660008083815260200190815260200160002060020160009054906101000a900473ffffffffffffffffffffffffffffffffffffffff1673ffffffffffffffffffffffffffffffffffffffff161415610a92576040517f08c379a000000000000000000000000000000000000000000000000000000000815260040180806020018281038252601a8152602001807f426f6e64206964206d75737420616c726561647920657869737400000000000081525060200191505060405180910390fd5b60008085815260200190815260200160002060010160008473ffffffffffffffffffffffffffffffffffffffff1673ffffffffffffffffffffffffffffffffffffffff1681526020019081526020016000205491505092915050565b600081600073ffffffffffffffffffffffffffffffffffffffff1660008083815260200190815260200160002060020160009054906101000a900473ffffffffffffffffffffffffffffffffffffffff1673ffffffffffffffffffffffffffffffffffffffff161415610bc9576040517f08c379a000000000000000000000000000000000000000000000000000000000815260040180806020018281038252601a8152602001807f426f6e64206964206d75737420616c726561647920657869737400000000000081525060200191505060405180910390fd5b60008084815260200190815260200160002060000154915050919050565b600073ffffffffffffffffffffffffffffffffffffffff168373ffffffffffffffffffffffffffffffffffffffff161415610c8a576040517f08c379a000000000000000000000000000000000000000000000000000000000815260040180806020018281038252601c8152602001807f4d7573742073706563696679206120637572766520616464726573730000000081525060200191505060405180910390fd5b600073ffffffffffffffffffffffffffffffffffffffff1660008084815260200190815260200160002060020160009054906101000a900473ffffffffffffffffffffffffffffffffffffffff1673ffffffffffffffffffffffffffffffffffffffff1614610d61576040517f08c379a00000000000000000000000000000000000000000000000000000000081526004018080602001828103825260168152602001807f426f6e6420696420616c7265616479206578697374730000000000000000000081525060200191505060405180910390fd5b610d696116e2565b6040518060400160405280600081526020018573ffffffffffffffffffffffffffffffffffffffff168152509050806000808581526020019081526020016000206000820151816000015560208201518160020160006101000a81548173ffffffffffffffffffffffffffffffffffffffff021916908373ffffffffffffffffffffffffffffffffffffffff1602179055509050506000821115610e1457610e1382843334611218565b5b50505050565b600081600073ffffffffffffffffffffffffffffffffffffffff1660008083815260200190815260200160002060020160009054906101000a900473ffffffffffffffffffffffffffffffffffffffff1673ffffffffffffffffffffffffffffffffffffffff161415610ef5576040517f08c379a000000000000000000000000000000000000000000000000000000000815260040180806020018281038252601a8152602001807f426f6e64206964206d75737420616c726561647920657869737400000000000081525060200191505060405180910390fd5b60008084815260200190815260200160002060020160009054906101000a900473ffffffffffffffffffffffffffffffffffffffff16915050919050565b600081600073ffffffffffffffffffffffffffffffffffffffff1660008083815260200190815260200160002060020160009054906101000a900473ffffffffffffffffffffffffffffffffffffffff1673ffffffffffffffffffffffffffffffffffffffff16141561100e576040517f08c379a000000000000000000000000000000000000000000000000000000000815260040180806020018281038252601a8152602001807f426f6e64206964206d75737420616c726561647920657869737400000000000081525060200191505060405180910390fd5b6110166116e2565b600080858152602001908152602001600020604051806040016040529081600082015481526020016002820160009054906101000a900473ffffffffffffffffffffffffffffffffffffffff1673ffffffffffffffffffffffffffffffffffffffff1673ffffffffffffffffffffffffffffffffffffffff16815250509050806020015173ffffffffffffffffffffffffffffffffffffffff1663d32b84b48260000151876040518363ffffffff1660e01b8152600401808381526020018281526020019250505060206040518083038186803b1580156110f657600080fd5b505afa15801561110a573d6000803e3d6000fd5b505050506040513d602081101561112057600080fd5b81019080805190602001909291905050509250505092915050565b60006020528060005260406000206000915090508060000154908060020160009054906101000a900473ffffffffffffffffffffffffffffffffffffffff16905082565b61118b82823334611218565b5050565b600082821115611207576040517f08c379a000000000000000000000000000000000000000000000000000000000815260040180806020018281038252601e8152602001807f536166654d6174683a207375627472616374696f6e206f766572666c6f77000081525060200191505060405180910390fd5b600082840390508091505092915050565b82600073ffffffffffffffffffffffffffffffffffffffff1660008083815260200190815260200160002060020160009054906101000a900473ffffffffffffffffffffffffffffffffffffffff1673ffffffffffffffffffffffffffffffffffffffff1614156112f1576040517f08c379a000000000000000000000000000000000000000000000000000000000815260040180806020018281038252601a8152602001807f426f6e64206964206d75737420616c726561647920657869737400000000000081525060200191505060405180910390fd5b60008511611367576040517f08c379a000000000000000000000000000000000000000000000000000000000815260040180806020018281038252601d8152602001807f63616e6e6f7420627579207a65726f206f72206c65737320756e69747300000081525060200191505060405180910390fd5b6000806000868152602001908152602001600020905060008160020160009054906101000a900473ffffffffffffffffffffffffffffffffffffffff1673ffffffffffffffffffffffffffffffffffffffff1663bbb8a2208360000154896040518363ffffffff1660e01b8152600401808381526020018281526020019250505060206040518083038186803b15801561140057600080fd5b505afa158015611414573d6000803e3d6000fd5b505050506040513d602081101561142a57600080fd5b81019080805190602001909291905050509050838111156114b3576040517f08c379a000000000000000000000000000000000000000000000000000000000815260040180806020018281038252601f8152602001807f6d7573742073656e6420656e6f75676820746f20636f7665722070726963650081525060200191505060405180910390fd5b60006114c8828661118f90919063ffffffff16565b90506114e188846000015461165a90919063ffffffff16565b836000018190555061153d888460010160008973ffffffffffffffffffffffffffffffffffffffff1673ffffffffffffffffffffffffffffffffffffffff1681526020019081526020016000205461165a90919063ffffffff16565b8360010160008873ffffffffffffffffffffffffffffffffffffffff1673ffffffffffffffffffffffffffffffffffffffff168152602001908152602001600020819055508573ffffffffffffffffffffffffffffffffffffffff166108fc829081150290604051600060405180830381858888f193505050501580156115c8573d6000803e3d6000fd5b5082600080898152602001908152602001600020600082015481600001556002820160009054906101000a900473ffffffffffffffffffffffffffffffffffffffff168160020160006101000a81548173ffffffffffffffffffffffffffffffffffffffff021916908373ffffffffffffffffffffffffffffffffffffffff1602179055509050505050505050505050565b6000808284019050838110156116d8576040517f08c379a000000000000000000000000000000000000000000000000000000000815260040180806020018281038252601b8152602001807f536166654d6174683a206164646974696f6e206f766572666c6f77000000000081525060200191505060405180910390fd5b8091505092915050565b604051806040016040528060008152602001600073ffffffffffffffffffffffffffffffffffffffff168152509056fea265627a7a723158200dc5aed3b8bf5d84ad9bfb4d2334309c5c994e52919d0a10954e0f34da8d494f64736f6c634300050c0032",
  "source": "pragma solidity >=0.5.0 <0.6.0;\n\nimport \"openzeppelin-solidity/contracts/math/SafeMath.sol\";\n\n// TODO the contract needs events so apps can watch for when purchases go through, etc.\n// TODO curve tokens currently can't be sold in external markets -- do we want that?\n\ncontract AutoBond {\n  using SafeMath for uint256;\n\n  constructor () public {}\n\n  struct Bond {\n    uint256 supply; // total outstanding minted units\n    mapping(address => uint256) balances;\n    address curve;\n  }\n\n  // mapping from definition address to it's bond\n  mapping(bytes32 => Bond) public bonds;\n\n  function getBalance(bytes32 bondId, address holder) public view bondExists(bondId) returns (uint256) {\n    return bonds[bondId].balances[holder];\n  }\n\n  function getSupply(bytes32 bondId) public view bondExists(bondId) returns (uint256) {\n    return bonds[bondId].supply;\n  }\n\n  function getCurve(bytes32 bondId) public view bondExists(bondId) returns (address) {\n    return bonds[bondId].curve;\n  }\n\n  function getBuyPrice(uint256 units, bytes32 bondId) public view bondExists(bondId) returns (uint256) {\n    Bond memory b = bonds[bondId];\n    return Curve(b.curve).buyPrice(b.supply, units);\n  }\n\n  function getSellPrice(uint256 units, bytes32 bondId) public view bondExists(bondId) returns (uint256) {\n    Bond memory b = bonds[bondId];\n    return Curve(b.curve).sellPrice(b.supply, units);\n  }\n\n  modifier bondExists(bytes32 bondId) {\n    require(bonds[bondId].curve != address(0), \"Bond id must already exist\");\n    _;\n  }\n\n  // newBond makes a new bond and buys the first set of units\n  function newBond(address curve, bytes32 bondId, uint256 units) public payable {\n    require(curve != address(0), \"Must specify a curve address\");\n    require(bonds[bondId].curve == address(0), \"Bond id already exists\");\n    Bond memory bond = Bond({ curve: curve, supply: 0 });\n    bonds[bondId] = bond;\n    if (units > 0) {\n      _buy(units, bondId, msg.sender, msg.value);\n    }\n  }\n\n  function _buy(\n    uint256 units,\n    bytes32 bondId,\n    address payable purchaser,\n    uint256 value\n  ) internal bondExists(bondId) {\n    require(units > 0, \"cannot buy zero or less units\");\n    Bond storage b = bonds[bondId];\n    uint256 price = Curve(b.curve).buyPrice(b.supply, units);\n    require(price <= value, \"must send enough to cover price\");\n    uint256 refund = value.sub(price);\n    b.supply = b.supply.add(units);\n    b.balances[purchaser] = b.balances[purchaser].add(units);\n    purchaser.transfer(refund);\n    bonds[bondId] = b;\n  }\n\n  function buy(uint256 units, bytes32 bondId) public payable {\n    _buy(units, bondId, msg.sender, msg.value);\n  }\n\n  function sell(uint256 units, bytes32 bondId) public bondExists(bondId) {\n    // TODO users will want some way to control whether they want to hold\n    // depending on price\n    require(units > 0, \"cannot sell zero or fewer units\");\n    Bond storage b = bonds[bondId];\n    require(units <= b.balances[msg.sender], \"Must own enough units to sell\");\n    uint256 price = Curve(b.curve).sellPrice(b.supply, units);\n    b.supply = b.supply.sub(units);\n    b.balances[msg.sender] = b.balances[msg.sender].sub(units);\n    msg.sender.transfer(price);\n  }\n}\n\ncontract Curve {\n  function buyPrice(uint256 supply, uint256 units) public view returns (uint256);\n  function sellPrice(uint256 supply, uint256 units) public view returns (uint256);\n}\n\ncontract SimpleLinearCurve is Curve {\n  using SafeMath for uint256;\n\n  constructor () public {}\n\n  function buyPrice (uint256 supply, uint256 units) public view returns (uint256) {\n    // sum of the series from supply + 1 to new supply or (supply + units)\n    // average of the first term and the last term timen the number of terms\n    //                supply + 1         supply + units      units\n\n    uint256 a1 = supply.add(1);      // the first newly minted token\n    uint256 an = supply.add(units);  // the last newly minted token\n    uint256 n = units;               // number of tokens in the series\n\n    // the forumula is n((a1 + an)/2)\n    // but deviding integers by 2 introduces errors that are then multiplied\n    // factor the formula to devide by 2 last\n\n    // ((a1 * n) + (a2 * n)) / 2\n\n    return a1.mul(n).add(an.mul(n)).div(2);\n  }\n\n  function sellPrice (uint256 supply, uint256 units) public view returns (uint256) {\n    return buyPrice(supply.sub(units), units);\n  }\n}\n",
  "sourcePath": "/Users/ezra/workspace/Holochain/squad/packages/curation-market/app/contracts/AutoBond.sol",
  "compiler": {
    "name": "solc",
    "version": "0.5.12+commit.7709ece9.Emscripten.clang"
  },
  "schemaVersion": "3.0.19",
  "updatedAt": "2020-09-13T19:06:48.901Z",
  "networkType": "ethereum",
  "devdoc": {
    "methods": {}
  },
  "userdoc": {
    "methods": {}
  }
}