{
  "contractName": "SimpleLinearCurve",
  "abi": [
    {
      "inputs": [],
      "payable": false,
      "stateMutability": "nonpayable",
      "type": "constructor"
    },
    {
      "constant": true,
      "inputs": [
        {
          "internalType": "uint256",
          "name": "supply",
          "type": "uint256"
        },
        {
          "internalType": "uint256",
          "name": "units",
          "type": "uint256"
        }
      ],
      "name": "buyPrice",
      "outputs": [
        {
          "internalType": "uint256",
          "name": "",
          "type": "uint256"
        }
      ],
      "payable": false,
      "stateMutability": "view",
      "type": "function"
    },
    {
      "constant": true,
      "inputs": [
        {
          "internalType": "uint256",
          "name": "supply",
          "type": "uint256"
        },
        {
          "internalType": "uint256",
          "name": "units",
          "type": "uint256"
        }
      ],
      "name": "sellPrice",
      "outputs": [
        {
          "internalType": "uint256",
          "name": "",
          "type": "uint256"
        }
      ],
      "payable": false,
      "stateMutability": "view",
      "type": "function"
    }
  ],
  "bytecode": "0x608060405234801561001057600080fd5b506103ff806100206000396000f3fe608060405234801561001057600080fd5b50600436106100365760003560e01c8063bbb8a2201461003b578063d32b84b414610087575b600080fd5b6100716004803603604081101561005157600080fd5b8101908080359060200190929190803590602001909291905050506100d3565b6040518082815260200191505060405180910390f35b6100bd6004803603604081101561009d57600080fd5b81019080803590602001909291908035906020019092919050505061015d565b6040518082815260200191505060405180910390f35b6000806100ea60018561018390919063ffffffff16565b90506000610101848661018390919063ffffffff16565b905060008490506101526002610144610123848661020b90919063ffffffff16565b610136858861020b90919063ffffffff16565b61018390919063ffffffff16565b61029190919063ffffffff16565b935050505092915050565b600061017b610175838561032090919063ffffffff16565b836100d3565b905092915050565b600080828401905083811015610201576040517f08c379a000000000000000000000000000000000000000000000000000000000815260040180806020018281038252601b8152602001807f536166654d6174683a206164646974696f6e206f766572666c6f77000000000081525060200191505060405180910390fd5b8091505092915050565b60008083141561021e576000905061028b565b600082840290508284828161022f57fe5b0414610286576040517f08c379a00000000000000000000000000000000000000000000000000000000081526004018080602001828103825260218152602001806103aa6021913960400191505060405180910390fd5b809150505b92915050565b6000808211610308576040517f08c379a000000000000000000000000000000000000000000000000000000000815260040180806020018281038252601a8152602001807f536166654d6174683a206469766973696f6e206279207a65726f00000000000081525060200191505060405180910390fd5b600082848161031357fe5b0490508091505092915050565b600082821115610398576040517f08c379a000000000000000000000000000000000000000000000000000000000815260040180806020018281038252601e8152602001807f536166654d6174683a207375627472616374696f6e206f766572666c6f77000081525060200191505060405180910390fd5b60008284039050809150509291505056fe536166654d6174683a206d756c7469706c69636174696f6e206f766572666c6f77a265627a7a7231582056d8edacc3c97c493863bc42a0f3ab1fa8ee2982f06fccffb3945c7701bda7e964736f6c634300050c0032",
  "source": "pragma solidity >=0.5.0 <0.6.0;\n\nimport \"openzeppelin-solidity/contracts/math/SafeMath.sol\";\n\ncontract AutoBond {\n  using SafeMath for uint256;\n\n  constructor () public {}\n\n  struct Bond {\n    uint256 supply; // total outstanding minted units\n    mapping(address => uint256) balances;\n    address curve;\n  }\n\n  // mapping from definition address to it's bond\n  mapping(bytes32 => Bond) public bonds;\n\n  function getBalance(bytes32 bondId, address holder) public view returns (uint256) {\n    return bonds[bondId].balances[holder];\n  }\n\n  function getSupply(bytes32 bondId) public view returns (uint256) {\n    return bonds[bondId].supply;\n  }\n\n  function getCurve(bytes32 bondId) public view returns (address) {\n    return bonds[bondId].curve;\n  }\n\n  function getBuyPrice(uint256 units, bytes32 bondId) public view returns (uint256) {\n    Bond memory b = bonds[bondId];\n    return Curve(b.curve).buyPrice(b.supply, units);\n  }\n\n  function getSellPrice(uint256 units, bytes32 bondId) public view returns (uint256) {\n    Bond memory b = bonds[bondId];\n    return Curve(b.curve).sellPrice(b.supply, units);\n  }\n\n  // newBond makes a new bond and buys the first set of units\n  function newBond(address curve, bytes32 bondId, uint256 units) public payable {\n    require(curve != address(0), \"Must specify a curve address\");\n    require(bonds[bondId].curve == address(0), \"Bond id exists\");\n    Bond memory bond = Bond({ curve: curve, supply: 0 });\n    bonds[bondId] = bond;\n    if (units > 0) {\n      _buy(units, bondId, msg.sender, msg.value);\n    }\n  }\n\n  function _buy(\n    uint256 units,\n    bytes32 bondId,\n    address payable purchaser,\n    uint256 value\n  ) internal {\n    require(units > 0, \"cannot buy zero or less units\");\n    Bond storage b = bonds[bondId];\n    uint256 price = Curve(b.curve).buyPrice(b.supply, units);\n    require(price <= value, \"must send enough to cover price\");\n    uint256 refund = value.sub(price);\n    b.supply = b.supply.add(units);\n    b.balances[purchaser] = b.balances[purchaser].add(units);\n    purchaser.transfer(refund);\n    bonds[bondId] = b;\n  }\n\n  function buy(uint256 units, bytes32 bondId) public payable {\n    _buy(units, bondId, msg.sender, msg.value);\n  }\n\n  function sell(uint256 units, bytes32 bondId) public {\n    // TODO users will want some way to control whether they want to hold\n    // depending on price\n    require(units > 0, \"cannot sell zero or fewer units\");\n    Bond storage b = bonds[bondId];\n    require(units <= b.balances[msg.sender], \"Must own enough units to sell\");\n    uint256 price = Curve(b.curve).sellPrice(b.supply, units);\n    b.supply = b.supply.sub(units);\n    b.balances[msg.sender] = b.balances[msg.sender].sub(units);\n    msg.sender.transfer(price);\n  }\n}\n\ncontract Curve {\n  function buyPrice(uint256 supply, uint256 units) public view returns (uint256);\n  function sellPrice(uint256 supply, uint256 units) public view returns (uint256);\n}\n\ncontract SimpleLinearCurve is Curve {\n  using SafeMath for uint256;\n\n  constructor () public {}\n\n  function buyPrice (uint256 supply, uint256 units) public view returns (uint256) {\n    // sum of the series from supply + 1 to new supply or (supply + units)\n    // average of the first term and the last term timen the number of terms\n    //                supply + 1         supply + units      units\n\n    uint256 a1 = supply.add(1);      // the first newly minted token\n    uint256 an = supply.add(units);  // the last newly minted token\n    uint256 n = units;               // number of tokens in the series\n\n    // the forumula is n((a1 + an)/2)\n    // but deviding integers by 2 introduces errors that are then multiplied\n    // factor the formula to devide by 2 last\n\n    // ((a1 * n) + (a2 * n)) / 2\n\n    return a1.mul(n).add(an.mul(n)).div(2);\n  }\n\n  function sellPrice (uint256 supply, uint256 units) public view returns (uint256) {\n    return buyPrice(supply.sub(units), units);\n  }\n}\n",
  "sourcePath": "/home/jesse/squad/packages/curation-market/app/contracts/AutoBond.sol",
  "compiler": {
    "name": "solc",
    "version": "0.5.12+commit.7709ece9.Emscripten.clang"
  },
  "schemaVersion": "3.0.19",
  "updatedAt": "2020-03-24T02:11:05.748Z",
  "networkType": "ethereum",
  "devdoc": {
    "methods": {}
  },
  "userdoc": {
    "methods": {}
  }
}