{
  "contractName": "AutoBond",
  "abi": [
    {
      "constant": true,
      "inputs": [
        {
          "name": "",
          "type": "bytes32"
        }
      ],
      "name": "bonds",
      "outputs": [
        {
          "name": "supply",
          "type": "uint256"
        },
        {
          "name": "curve",
          "type": "address"
        }
      ],
      "payable": false,
      "stateMutability": "view",
      "type": "function"
    },
    {
      "inputs": [],
      "payable": false,
      "stateMutability": "nonpayable",
      "type": "constructor"
    },
    {
      "constant": false,
      "inputs": [
        {
          "name": "curve",
          "type": "address"
        },
        {
          "name": "bondId",
          "type": "bytes32"
        },
        {
          "name": "units",
          "type": "uint256"
        }
      ],
      "name": "newBond",
      "outputs": [],
      "payable": true,
      "stateMutability": "payable",
      "type": "function"
    },
    {
      "constant": false,
      "inputs": [
        {
          "name": "units",
          "type": "uint256"
        },
        {
          "name": "bondId",
          "type": "bytes32"
        }
      ],
      "name": "buy",
      "outputs": [],
      "payable": true,
      "stateMutability": "payable",
      "type": "function"
    },
    {
      "constant": false,
      "inputs": [
        {
          "name": "units",
          "type": "uint256"
        },
        {
          "name": "bondId",
          "type": "bytes32"
        }
      ],
      "name": "sell",
      "outputs": [],
      "payable": false,
      "stateMutability": "nonpayable",
      "type": "function"
    }
  ],
  "bytecode": "0x608060405234801561001057600080fd5b50610c6e806100206000396000f3fe608060405260043610610062576000357c0100000000000000000000000000000000000000000000000000000000900463ffffffff16806329e69dd91461006757806372fbc2e6146100ac578063b9ad7ea914610104578063e9fca28314610186575b600080fd5b34801561007357600080fd5b506100aa6004803603604081101561008a57600080fd5b8101908080359060200190929190803590602001909291905050506101be565b005b610102600480360360608110156100c257600080fd5b81019080803573ffffffffffffffffffffffffffffffffffffffff16906020019092919080359060200190929190803590602001909291905050506104e8565b005b34801561011057600080fd5b5061013d6004803603602081101561012757600080fd5b810190808035906020019092919050505061071f565b604051808381526020018273ffffffffffffffffffffffffffffffffffffffff1673ffffffffffffffffffffffffffffffffffffffff1681526020019250505060405180910390f35b6101bc6004803603604081101561019c57600080fd5b810190808035906020019092919080359060200190929190505050610763565b005b600082111515610236576040517f08c379a000000000000000000000000000000000000000000000000000000000815260040180806020018281038252601f8152602001807f63616e6e6f742073656c6c207a65726f206f7220666577657220756e6974730081525060200191505060405180910390fd5b600080600083815260200190815260200160002090508060010160003373ffffffffffffffffffffffffffffffffffffffff1673ffffffffffffffffffffffffffffffffffffffff168152602001908152602001600020548310151515610305576040517f08c379a000000000000000000000000000000000000000000000000000000000815260040180806020018281038252601d8152602001807f4d757374206f776e20656e6f75676820756e69747320746f2073656c6c00000081525060200191505060405180910390fd5b60008160020160009054906101000a900473ffffffffffffffffffffffffffffffffffffffff1673ffffffffffffffffffffffffffffffffffffffff1663d32b84b48360000154866040518363ffffffff167c01000000000000000000000000000000000000000000000000000000000281526004018083815260200182815260200192505050602060405180830381600087803b1580156103a657600080fd5b505af11580156103ba573d6000803e3d6000fd5b505050506040513d60208110156103d057600080fd5b810190808051906020019092919050505090506103fa84836000015461077390919063ffffffff16565b8260000181905550610456848360010160003373ffffffffffffffffffffffffffffffffffffffff1673ffffffffffffffffffffffffffffffffffffffff1681526020019081526020016000205461077390919063ffffffff16565b8260010160003373ffffffffffffffffffffffffffffffffffffffff1673ffffffffffffffffffffffffffffffffffffffff168152602001908152602001600020819055503373ffffffffffffffffffffffffffffffffffffffff166108fc829081150290604051600060405180830381858888f193505050501580156104e1573d6000803e3d6000fd5b5050505050565b600073ffffffffffffffffffffffffffffffffffffffff168373ffffffffffffffffffffffffffffffffffffffff161415151561058d576040517f08c379a000000000000000000000000000000000000000000000000000000000815260040180806020018281038252601c8152602001807f4d7573742073706563696679206120637572766520616464726573730000000081525060200191505060405180910390fd5b600073ffffffffffffffffffffffffffffffffffffffff1660008084815260200190815260200160002060020160009054906101000a900473ffffffffffffffffffffffffffffffffffffffff1673ffffffffffffffffffffffffffffffffffffffff16141515610666576040517f08c379a000000000000000000000000000000000000000000000000000000000815260040180806020018281038252600e8152602001807f426f6e642069642065786973747300000000000000000000000000000000000081525060200191505060405180910390fd5b61066e610c12565b6040805190810160405280600081526020018573ffffffffffffffffffffffffffffffffffffffff168152509050806000808581526020019081526020016000206000820151816000015560208201518160020160006101000a81548173ffffffffffffffffffffffffffffffffffffffff021916908373ffffffffffffffffffffffffffffffffffffffff160217905550905050600082111561071957610718828433346107fe565b5b50505050565b60006020528060005260406000206000915090508060000154908060020160009054906101000a900473ffffffffffffffffffffffffffffffffffffffff16905082565b61076f828233346107fe565b5050565b60008282111515156107ed576040517f08c379a000000000000000000000000000000000000000000000000000000000815260040180806020018281038252601e8152602001807f536166654d6174683a207375627472616374696f6e206f766572666c6f77000081525060200191505060405180910390fd5b600082840390508091505092915050565b600084111515610876576040517f08c379a000000000000000000000000000000000000000000000000000000000815260040180806020018281038252601d8152602001807f63616e6e6f7420627579207a65726f206f72206c65737320756e69747300000081525060200191505060405180910390fd5b6000806000858152602001908152602001600020905060008160020160009054906101000a900473ffffffffffffffffffffffffffffffffffffffff1673ffffffffffffffffffffffffffffffffffffffff1663bbb8a2208360000154886040518363ffffffff167c01000000000000000000000000000000000000000000000000000000000281526004018083815260200182815260200192505050602060405180830381600087803b15801561092d57600080fd5b505af1158015610941573d6000803e3d6000fd5b505050506040513d602081101561095757600080fd5b810190808051906020019092919050505090508281111515156109e2576040517f08c379a000000000000000000000000000000000000000000000000000000000815260040180806020018281038252601f8152602001807f6d7573742073656e6420656e6f75676820746f20636f7665722070726963650081525060200191505060405180910390fd5b60006109f7828561077390919063ffffffff16565b9050610a10878460000154610b8890919063ffffffff16565b8360000181905550610a6c878460010160008873ffffffffffffffffffffffffffffffffffffffff1673ffffffffffffffffffffffffffffffffffffffff16815260200190815260200160002054610b8890919063ffffffff16565b8360010160008773ffffffffffffffffffffffffffffffffffffffff1673ffffffffffffffffffffffffffffffffffffffff168152602001908152602001600020819055508473ffffffffffffffffffffffffffffffffffffffff166108fc829081150290604051600060405180830381858888f19350505050158015610af7573d6000803e3d6000fd5b5082600080888152602001908152602001600020600082015481600001556002820160009054906101000a900473ffffffffffffffffffffffffffffffffffffffff168160020160006101000a81548173ffffffffffffffffffffffffffffffffffffffff021916908373ffffffffffffffffffffffffffffffffffffffff16021790555090505050505050505050565b6000808284019050838110151515610c08576040517f08c379a000000000000000000000000000000000000000000000000000000000815260040180806020018281038252601b8152602001807f536166654d6174683a206164646974696f6e206f766572666c6f77000000000081525060200191505060405180910390fd5b8091505092915050565b604080519081016040528060008152602001600073ffffffffffffffffffffffffffffffffffffffff168152509056fea165627a7a723058201e48d6f5857a77450fb4de1635d33073fc9c0dd8f76cf409284ae96e503f357c0029",
  "source": "pragma solidity >=0.5.0 <0.6.0;\n\nimport \"openzeppelin-solidity/contracts/math/SafeMath.sol\";\n\ncontract AutoBond {\n  using SafeMath for uint256;\n\n  constructor () public {}\n\n  struct Bond {\n    uint256 supply; // total outstanding minted units\n    mapping(address => uint256) balances;\n    address curve;\n  }\n\n  // mapping from definition address to it's bond\n  mapping(bytes32 => Bond) public bonds;\n\n  // newBond makes a new bond and buys the first set of units\n  function newBond(address curve, bytes32 bondId, uint256 units) payable public {\n    require(curve != address(0), \"Must specify a curve address\");\n    require(bonds[bondId].curve == address(0), \"Bond id exists\");\n    Bond memory bond = Bond({ curve: curve, supply: 0 });\n    // bond.curve = curve;\n    bonds[bondId] = bond;\n    if (units > 0) {\n      _buy(units, bondId, msg.sender, msg.value);\n    }\n  }\n\n  function _buy(\n    uint256 units,\n    bytes32 bondId,\n    address payable purchaser,\n    uint256 value\n  ) internal {\n    require(units > 0, \"cannot buy zero or less units\");\n    Bond storage b = bonds[bondId];\n    uint256 price = Curve(b.curve).buyPrice(b.supply, units);\n    require(price <= value, \"must send enough to cover price\");\n    uint256 refund = value.sub(price);\n    b.supply = b.supply.add(units);\n    b.balances[purchaser] = b.balances[purchaser].add(units);\n    purchaser.transfer(refund);\n    bonds[bondId] = b;\n  }\n\n  function buy(uint256 units, bytes32 bondId) public payable {\n    _buy(units, bondId, msg.sender, msg.value);\n  }\n\n  function sell(uint256 units, bytes32 bondId) public {\n    // TODO users will want some way to control whether they want to hold\n    // depending on price\n    require(units > 0, \"cannot sell zero or fewer units\");\n    Bond storage b = bonds[bondId];\n    require(units >= b.balances[msg.sender], \"Must own enough units to sell\");\n    uint256 price = Curve(b.curve).sellPrice(b.supply, units);\n    b.supply = b.supply.sub(units);\n    b.balances[msg.sender] = b.balances[msg.sender].sub(units);\n    msg.sender.transfer(price);\n  }\n}\n\ncontract Curve {\n  function buyPrice(uint256 supply, uint256 units) public returns (uint256);\n  function sellPrice(uint256 supply, uint256 units) public returns (uint256);\n}\n\ncontract SimpleLinearCurve is Curve {\n  using SafeMath for uint256;\n\n  constructor () public {}\n\n  function buyPrice (uint256 supply, uint256 units) public returns (uint256) {\n    // sum of the series from units to units + supply\n    // units * ((supply + units) / 2)\n    return units.mul(supply.add(units).div(2));\n  }\n\n  function sellPrice (uint256 supply, uint256 units) public returns (uint256) {\n    return buyPrice(supply.sub(units), units);\n  }\n}\n",
  "sourcePath": "/Users/ezra/workspace/Holochain/squad/curation/contracts/AutoBond.sol",
  "compiler": {
    "name": "solc",
    "version": "0.5.0+commit.1d4f565a.Emscripten.clang"
  },
  "schemaVersion": "3.0.9",
  "updatedAt": "2019-08-11T16:16:24.117Z",
  "devdoc": {
    "methods": {}
  },
  "userdoc": {
    "methods": {}
  }
}